{
  "contractName": "Dex",
  "abi": [
    {
      "inputs": [],
      "stateMutability": "nonpayable",
      "type": "constructor"
    },
    {
      "anonymous": false,
      "inputs": [
        {
          "indexed": false,
          "internalType": "uint256",
          "name": "tradeId",
          "type": "uint256"
        },
        {
          "indexed": false,
          "internalType": "uint256",
          "name": "orderId",
          "type": "uint256"
        },
        {
          "indexed": true,
          "internalType": "bytes32",
          "name": "ticker",
          "type": "bytes32"
        },
        {
          "indexed": true,
          "internalType": "address",
          "name": "trader1",
          "type": "address"
        },
        {
          "indexed": true,
          "internalType": "address",
          "name": "trader2",
          "type": "address"
        },
        {
          "indexed": false,
          "internalType": "uint256",
          "name": "amount",
          "type": "uint256"
        },
        {
          "indexed": false,
          "internalType": "uint256",
          "name": "price",
          "type": "uint256"
        },
        {
          "indexed": false,
          "internalType": "uint256",
          "name": "date",
          "type": "uint256"
        }
      ],
      "name": "newTrade",
      "type": "event"
    },
    {
      "inputs": [],
      "name": "admin",
      "outputs": [
        {
          "internalType": "address",
          "name": "",
          "type": "address"
        }
      ],
      "stateMutability": "view",
      "type": "function",
      "constant": true
    },
    {
      "inputs": [],
      "name": "nextOrderId",
      "outputs": [
        {
          "internalType": "uint256",
          "name": "",
          "type": "uint256"
        }
      ],
      "stateMutability": "view",
      "type": "function",
      "constant": true
    },
    {
      "inputs": [],
      "name": "nextTradeId",
      "outputs": [
        {
          "internalType": "uint256",
          "name": "",
          "type": "uint256"
        }
      ],
      "stateMutability": "view",
      "type": "function",
      "constant": true
    },
    {
      "inputs": [
        {
          "internalType": "bytes32",
          "name": "",
          "type": "bytes32"
        },
        {
          "internalType": "uint256",
          "name": "",
          "type": "uint256"
        },
        {
          "internalType": "uint256",
          "name": "",
          "type": "uint256"
        }
      ],
      "name": "orderBook",
      "outputs": [
        {
          "internalType": "uint256",
          "name": "id",
          "type": "uint256"
        },
        {
          "internalType": "address",
          "name": "trader",
          "type": "address"
        },
        {
          "internalType": "enum Dex.Side",
          "name": "side",
          "type": "uint8"
        },
        {
          "internalType": "bytes32",
          "name": "ticker",
          "type": "bytes32"
        },
        {
          "internalType": "uint256",
          "name": "amount",
          "type": "uint256"
        },
        {
          "internalType": "uint256",
          "name": "filled",
          "type": "uint256"
        },
        {
          "internalType": "uint256",
          "name": "price",
          "type": "uint256"
        },
        {
          "internalType": "uint256",
          "name": "date",
          "type": "uint256"
        }
      ],
      "stateMutability": "view",
      "type": "function",
      "constant": true
    },
    {
      "inputs": [
        {
          "internalType": "uint256",
          "name": "",
          "type": "uint256"
        }
      ],
      "name": "tokenList",
      "outputs": [
        {
          "internalType": "bytes32",
          "name": "",
          "type": "bytes32"
        }
      ],
      "stateMutability": "view",
      "type": "function",
      "constant": true
    },
    {
      "inputs": [
        {
          "internalType": "bytes32",
          "name": "",
          "type": "bytes32"
        }
      ],
      "name": "tokens",
      "outputs": [
        {
          "internalType": "bytes32",
          "name": "ticker",
          "type": "bytes32"
        },
        {
          "internalType": "address",
          "name": "tokenAddress",
          "type": "address"
        }
      ],
      "stateMutability": "view",
      "type": "function",
      "constant": true
    },
    {
      "inputs": [
        {
          "internalType": "address",
          "name": "",
          "type": "address"
        },
        {
          "internalType": "bytes32",
          "name": "",
          "type": "bytes32"
        }
      ],
      "name": "traderBalances",
      "outputs": [
        {
          "internalType": "uint256",
          "name": "",
          "type": "uint256"
        }
      ],
      "stateMutability": "view",
      "type": "function",
      "constant": true
    },
    {
      "inputs": [
        {
          "internalType": "bytes32",
          "name": "ticker",
          "type": "bytes32"
        },
        {
          "internalType": "enum Dex.Side",
          "name": "side",
          "type": "uint8"
        }
      ],
      "name": "getOrders",
      "outputs": [
        {
          "components": [
            {
              "internalType": "uint256",
              "name": "id",
              "type": "uint256"
            },
            {
              "internalType": "address",
              "name": "trader",
              "type": "address"
            },
            {
              "internalType": "enum Dex.Side",
              "name": "side",
              "type": "uint8"
            },
            {
              "internalType": "bytes32",
              "name": "ticker",
              "type": "bytes32"
            },
            {
              "internalType": "uint256",
              "name": "amount",
              "type": "uint256"
            },
            {
              "internalType": "uint256",
              "name": "filled",
              "type": "uint256"
            },
            {
              "internalType": "uint256",
              "name": "price",
              "type": "uint256"
            },
            {
              "internalType": "uint256",
              "name": "date",
              "type": "uint256"
            }
          ],
          "internalType": "struct Dex.Order[]",
          "name": "",
          "type": "tuple[]"
        }
      ],
      "stateMutability": "view",
      "type": "function",
      "constant": true
    },
    {
      "inputs": [],
      "name": "getTokens",
      "outputs": [
        {
          "components": [
            {
              "internalType": "bytes32",
              "name": "ticker",
              "type": "bytes32"
            },
            {
              "internalType": "address",
              "name": "tokenAddress",
              "type": "address"
            }
          ],
          "internalType": "struct Dex.Token[]",
          "name": "",
          "type": "tuple[]"
        }
      ],
      "stateMutability": "view",
      "type": "function",
      "constant": true
    },
    {
      "inputs": [
        {
          "internalType": "bytes32",
          "name": "ticker",
          "type": "bytes32"
        },
        {
          "internalType": "address",
          "name": "tokenAddress",
          "type": "address"
        }
      ],
      "name": "addToken",
      "outputs": [],
      "stateMutability": "nonpayable",
      "type": "function"
    },
    {
      "inputs": [
        {
          "internalType": "uint256",
          "name": "amount",
          "type": "uint256"
        },
        {
          "internalType": "bytes32",
          "name": "ticker",
          "type": "bytes32"
        }
      ],
      "name": "deposit",
      "outputs": [],
      "stateMutability": "nonpayable",
      "type": "function"
    },
    {
      "inputs": [
        {
          "internalType": "uint256",
          "name": "amount",
          "type": "uint256"
        },
        {
          "internalType": "bytes32",
          "name": "ticker",
          "type": "bytes32"
        }
      ],
      "name": "withdraw",
      "outputs": [],
      "stateMutability": "nonpayable",
      "type": "function"
    },
    {
      "inputs": [
        {
          "internalType": "bytes32",
          "name": "ticker",
          "type": "bytes32"
        },
        {
          "internalType": "uint256",
          "name": "amount",
          "type": "uint256"
        },
        {
          "internalType": "uint256",
          "name": "price",
          "type": "uint256"
        },
        {
          "internalType": "enum Dex.Side",
          "name": "side",
          "type": "uint8"
        }
      ],
      "name": "createLimitOrder",
      "outputs": [],
      "stateMutability": "nonpayable",
      "type": "function"
    },
    {
      "inputs": [
        {
          "internalType": "bytes32",
          "name": "ticker",
          "type": "bytes32"
        },
        {
          "internalType": "uint256",
          "name": "amount",
          "type": "uint256"
        },
        {
          "internalType": "enum Dex.Side",
          "name": "side",
          "type": "uint8"
        }
      ],
      "name": "createMarketOrder",
      "outputs": [],
      "stateMutability": "nonpayable",
      "type": "function"
    }
  ],
  "bytecode": "0x608060405234801561001057600080fd5b5033600460006101000a81548173ffffffffffffffffffffffffffffffffffffffff021916908373ffffffffffffffffffffffffffffffffffffffff16021790555061348d806100616000396000f3fe608060405234801561001057600080fd5b50600436106100ea5760003560e01c80639776aacf1161008c578063aa6ca80811610066578063aa6ca80814610277578063c9630cb014610295578063d9c0c950146102b1578063f851a440146102cd576100ea565b80639776aacf1461020f5780639ead72221461022b578063a8d2021a1461025b576100ea565b806372ce957e116100c857806372ce957e146101745780637f2c6246146101a4578063813ad083146101c0578063904194a3146101de576100ea565b80630bb431b6146100ef5780632a58b3301461012657806346e9658b14610144575b600080fd5b61010960048036036101049190810190612993565b6102eb565b60405161011d98979695949392919061318e565b60405180910390f35b61012e610387565b60405161013b9190613173565b60405180910390f35b61015e60048036036101599190810190612908565b61038d565b60405161016b9190612fc9565b60405180910390f35b61018e6004803603610189919081019061283e565b6104db565b60405161019b9190613173565b60405180910390f35b6101be60048036036101b99190810190612944565b610500565b005b6101c86115e3565b6040516101d59190613173565b60405180910390f35b6101f860048036036101f391908101906128a3565b6115e9565b604051610206929190613028565b60405180910390f35b610229600480360361022491908101906128cc565b61162d565b005b61024560048036036102409190810190612a45565b61177c565b604051610252919061300d565b60405180910390f35b61027560048036036102709190810190612a6e565b61179d565b005b61027f611a57565b60405161028c9190612feb565b60405180910390f35b6102af60048036036102aa9190810190612a6e565b611b80565b005b6102cb60048036036102c691908101906129e2565b611da9565b005b6102d56125a9565b6040516102e29190612f4e565b60405180910390f35b6000602052826000526040600020602052816000526040600020818154811061031057fe5b906000526020600020906007020160009250925050508060000154908060010160009054906101000a900473ffffffffffffffffffffffffffffffffffffffff16908060010160149054906101000a900460ff16908060020154908060030154908060040154908060050154908060060154905088565b60055481565b606060008084815260200190815260200160002060008360018111156103af57fe5b8152602001908152602001600020805480602002602001604051908101604052809291908181526020016000905b828210156104cf578382906000526020600020906007020160405180610100016040529081600082015481526020016001820160009054906101000a900473ffffffffffffffffffffffffffffffffffffffff1673ffffffffffffffffffffffffffffffffffffffff1673ffffffffffffffffffffffffffffffffffffffff1681526020016001820160149054906101000a900460ff16600181111561047f57fe5b600181111561048a57fe5b815260200160028201548152602001600382015481526020016004820154815260200160058201548152602001600682015481525050815260200190600101906103dd565b50505050905092915050565b6002602052816000526040600020602052806000526040600020600091509150505481565b82600073ffffffffffffffffffffffffffffffffffffffff166001600083815260200190815260200160002060010160009054906101000a900473ffffffffffffffffffffffffffffffffffffffff1673ffffffffffffffffffffffffffffffffffffffff1614156105a7576040517f08c379a000000000000000000000000000000000000000000000000000000000815260040161059e90613153565b60405180910390fd5b837f444149000000000000000000000000000000000000000000000000000000000081141561060b576040517f08c379a0000000000000000000000000000000000000000000000000000000008152600401610602906130b3565b60405180910390fd5b60018081111561061757fe5b83600181111561062357fe5b14156106bd5783600260003373ffffffffffffffffffffffffffffffffffffffff1673ffffffffffffffffffffffffffffffffffffffff16815260200190815260200160002060008781526020019081526020016000205410156106bc576040517f08c379a00000000000000000000000000000000000000000000000000000000081526004016106b3906130f3565b60405180910390fd5b5b600080600087815260200190815260200160002060008060018111156106df57fe5b8660018111156106eb57fe5b146106f75760006106fa565b60015b600181111561070557fe5b815260200190815260200160002090506000808690505b82805490508210801561072f5750600081115b156113a457600061078384848154811061074557fe5b90600052602060002090600702016004015485858154811061076357fe5b9060005260206000209060070201600301546125cf90919063ffffffff16565b905060008183116107945782610796565b815b90506107ab81846125cf90919063ffffffff16565b92506107dd818686815481106107bd57fe5b90600052602060002090600702016004015461261990919063ffffffff16565b8585815481106107e957fe5b9060005260206000209060070201600401819055503373ffffffffffffffffffffffffffffffffffffffff1685858154811061082157fe5b906000526020600020906007020160010160009054906101000a900473ffffffffffffffffffffffffffffffffffffffff1673ffffffffffffffffffffffffffffffffffffffff168b7ffc9e03b5c8db1d38fcbbef7db5d52adb19b17e683970fa3b5e4320e0c5e924e260065489898154811061089a57fe5b906000526020600020906007020160000154868b8b815481106108b957fe5b906000526020600020906007020160050154426040516108dd95949392919061320c565b60405180910390a46001808111156108f157fe5b8860018111156108fd57fe5b1415610db25761096681600260003373ffffffffffffffffffffffffffffffffffffffff1673ffffffffffffffffffffffffffffffffffffffff16815260200190815260200160002060008d8152602001908152602001600020546125cf90919063ffffffff16565b600260003373ffffffffffffffffffffffffffffffffffffffff1673ffffffffffffffffffffffffffffffffffffffff16815260200190815260200160002060008c815260200190815260200160002081905550610a6c6109ed8686815481106109cc57fe5b9060005260206000209060070201600501548361266e90919063ffffffff16565b600260003373ffffffffffffffffffffffffffffffffffffffff1673ffffffffffffffffffffffffffffffffffffffff16815260200190815260200160002060007f444149000000000000000000000000000000000000000000000000000000000081526020019081526020016000205461261990919063ffffffff16565b600260003373ffffffffffffffffffffffffffffffffffffffff1673ffffffffffffffffffffffffffffffffffffffff16815260200190815260200160002060007f4441490000000000000000000000000000000000000000000000000000000000815260200190815260200160002081905550610b808160026000888881548110610af457fe5b906000526020600020906007020160010160009054906101000a900473ffffffffffffffffffffffffffffffffffffffff1673ffffffffffffffffffffffffffffffffffffffff1673ffffffffffffffffffffffffffffffffffffffff16815260200190815260200160002060008d81526020019081526020016000205461261990919063ffffffff16565b60026000878781548110610b9057fe5b906000526020600020906007020160010160009054906101000a900473ffffffffffffffffffffffffffffffffffffffff1673ffffffffffffffffffffffffffffffffffffffff1673ffffffffffffffffffffffffffffffffffffffff16815260200190815260200160002060008c815260200190815260200160002081905550610d00610c44868681548110610c2357fe5b9060005260206000209060070201600501548361266e90919063ffffffff16565b60026000888881548110610c5457fe5b906000526020600020906007020160010160009054906101000a900473ffffffffffffffffffffffffffffffffffffffff1673ffffffffffffffffffffffffffffffffffffffff1673ffffffffffffffffffffffffffffffffffffffff16815260200190815260200160002060007f44414900000000000000000000000000000000000000000000000000000000008152602001908152602001600020546125cf90919063ffffffff16565b60026000878781548110610d1057fe5b906000526020600020906007020160010160009054906101000a900473ffffffffffffffffffffffffffffffffffffffff1673ffffffffffffffffffffffffffffffffffffffff1673ffffffffffffffffffffffffffffffffffffffff16815260200190815260200160002060007f44414900000000000000000000000000000000000000000000000000000000008152602001908152602001600020819055505b60006001811115610dbf57fe5b886001811115610dcb57fe5b141561136b57610e01858581548110610de057fe5b9060005260206000209060070201600501548261266e90919063ffffffff16565b600260003373ffffffffffffffffffffffffffffffffffffffff1673ffffffffffffffffffffffffffffffffffffffff16815260200190815260200160002060007f44414900000000000000000000000000000000000000000000000000000000008152602001908152602001600020541015610eb3576040517f08c379a0000000000000000000000000000000000000000000000000000000008152600401610eaa90613113565b60405180910390fd5b610f1681600260003373ffffffffffffffffffffffffffffffffffffffff1673ffffffffffffffffffffffffffffffffffffffff16815260200190815260200160002060008d81526020019081526020016000205461261990919063ffffffff16565b600260003373ffffffffffffffffffffffffffffffffffffffff1673ffffffffffffffffffffffffffffffffffffffff16815260200190815260200160002060008c815260200190815260200160002060008282540192505081905550611025610fa6868681548110610f8557fe5b9060005260206000209060070201600501548361266e90919063ffffffff16565b600260003373ffffffffffffffffffffffffffffffffffffffff1673ffffffffffffffffffffffffffffffffffffffff16815260200190815260200160002060007f44414900000000000000000000000000000000000000000000000000000000008152602001908152602001600020546125cf90919063ffffffff16565b600260003373ffffffffffffffffffffffffffffffffffffffff1673ffffffffffffffffffffffffffffffffffffffff16815260200190815260200160002060007f444149000000000000000000000000000000000000000000000000000000000081526020019081526020016000208190555061113981600260008888815481106110ad57fe5b906000526020600020906007020160010160009054906101000a900473ffffffffffffffffffffffffffffffffffffffff1673ffffffffffffffffffffffffffffffffffffffff1673ffffffffffffffffffffffffffffffffffffffff16815260200190815260200160002060008d8152602001908152602001600020546125cf90919063ffffffff16565b6002600087878154811061114957fe5b906000526020600020906007020160010160009054906101000a900473ffffffffffffffffffffffffffffffffffffffff1673ffffffffffffffffffffffffffffffffffffffff1673ffffffffffffffffffffffffffffffffffffffff16815260200190815260200160002060008c8152602001908152602001600020819055506112b96111fd8686815481106111dc57fe5b9060005260206000209060070201600501548361266e90919063ffffffff16565b6002600088888154811061120d57fe5b906000526020600020906007020160010160009054906101000a900473ffffffffffffffffffffffffffffffffffffffff1673ffffffffffffffffffffffffffffffffffffffff1673ffffffffffffffffffffffffffffffffffffffff16815260200190815260200160002060007f444149000000000000000000000000000000000000000000000000000000000081526020019081526020016000205461261990919063ffffffff16565b600260008787815481106112c957fe5b906000526020600020906007020160010160009054906101000a900473ffffffffffffffffffffffffffffffffffffffff1673ffffffffffffffffffffffffffffffffffffffff1673ffffffffffffffffffffffffffffffffffffffff16815260200190815260200160002060007f44414900000000000000000000000000000000000000000000000000000000008152602001908152602001600020819055505b611381600160065461261990919063ffffffff16565b60068190555061139b60018561261990919063ffffffff16565b9350505061071c565b600091505b8280549050821080156113f557508282815481106113c357fe5b9060005260206000209060070201600301548383815481106113e157fe5b906000526020600020906007020160040154145b156115d95760008290505b600184805490500381101561152f5783600182018154811061141e57fe5b906000526020600020906007020184828154811061143857fe5b9060005260206000209060070201600082015481600001556001820160009054906101000a900473ffffffffffffffffffffffffffffffffffffffff168160010160006101000a81548173ffffffffffffffffffffffffffffffffffffffff021916908373ffffffffffffffffffffffffffffffffffffffff1602179055506001820160149054906101000a900460ff168160010160146101000a81548160ff021916908360018111156114e857fe5b021790555060028201548160020155600382015481600301556004820154816004015560058201548160050155600682015481600601559050508080600101915050611400565b508280548061153a57fe5b60019003818190600052602060002090600702016000808201600090556001820160006101000a81549073ffffffffffffffffffffffffffffffffffffffff02191690556001820160146101000a81549060ff021916905560028201600090556003820160009055600482016000905560058201600090556006820160009055505090556115d260018361261990919063ffffffff16565b91506113a9565b5050505050505050565b60065481565b60016020528060005260406000206000915090508060000154908060010160009054906101000a900473ffffffffffffffffffffffffffffffffffffffff16905082565b600460009054906101000a900473ffffffffffffffffffffffffffffffffffffffff1673ffffffffffffffffffffffffffffffffffffffff163373ffffffffffffffffffffffffffffffffffffffff16146116bd576040517f08c379a00000000000000000000000000000000000000000000000000000000081526004016116b490613133565b60405180910390fd5b60405180604001604052808381526020018273ffffffffffffffffffffffffffffffffffffffff16815250600160008481526020019081526020016000206000820151816000015560208201518160010160006101000a81548173ffffffffffffffffffffffffffffffffffffffff021916908373ffffffffffffffffffffffffffffffffffffffff16021790555090505060038290806001815401808255809150506001900390600052602060002001600090919091909150555050565b6003818154811061178957fe5b906000526020600020016000915090505481565b80600073ffffffffffffffffffffffffffffffffffffffff166001600083815260200190815260200160002060010160009054906101000a900473ffffffffffffffffffffffffffffffffffffffff1673ffffffffffffffffffffffffffffffffffffffff161415611844576040517f08c379a000000000000000000000000000000000000000000000000000000000815260040161183b90613153565b60405180910390fd5b82600260003373ffffffffffffffffffffffffffffffffffffffff1673ffffffffffffffffffffffffffffffffffffffff16815260200190815260200160002060008481526020019081526020016000205410156118d7576040517f08c379a00000000000000000000000000000000000000000000000000000000081526004016118ce90613073565b60405180910390fd5b61193a83600260003373ffffffffffffffffffffffffffffffffffffffff1673ffffffffffffffffffffffffffffffffffffffff1681526020019081526020016000206000858152602001908152602001600020546125cf90919063ffffffff16565b600260003373ffffffffffffffffffffffffffffffffffffffff1673ffffffffffffffffffffffffffffffffffffffff1681526020019081526020016000206000848152602001908152602001600020819055506001600083815260200190815260200160002060010160009054906101000a900473ffffffffffffffffffffffffffffffffffffffff1673ffffffffffffffffffffffffffffffffffffffff1663a9059cbb33856040518363ffffffff1660e01b81526004016119ff929190612fa0565b602060405180830381600087803b158015611a1957600080fd5b505af1158015611a2d573d6000803e3d6000fd5b505050506040513d601f19601f82011682018060405250611a51919081019061287a565b50505050565b606080600380549050604051908082528060200260200182016040528015611a9957816020015b611a86612739565b815260200190600190039081611a7e5790505b50905060008090505b600380549050811015611b785760405180604001604052806001600060038581548110611acb57fe5b906000526020600020015481526020019081526020016000206000015481526020016001600060038581548110611afe57fe5b9060005260206000200154815260200190815260200160002060010160009054906101000a900473ffffffffffffffffffffffffffffffffffffffff1673ffffffffffffffffffffffffffffffffffffffff16815250828281518110611b6057fe5b60200260200101819052508080600101915050611aa2565b508091505090565b80600073ffffffffffffffffffffffffffffffffffffffff166001600083815260200190815260200160002060010160009054906101000a900473ffffffffffffffffffffffffffffffffffffffff1673ffffffffffffffffffffffffffffffffffffffff161415611c27576040517f08c379a0000000000000000000000000000000000000000000000000000000008152600401611c1e90613153565b60405180910390fd5b6001600083815260200190815260200160002060010160009054906101000a900473ffffffffffffffffffffffffffffffffffffffff1673ffffffffffffffffffffffffffffffffffffffff166323b872dd3330866040518463ffffffff1660e01b8152600401611c9a93929190612f69565b602060405180830381600087803b158015611cb457600080fd5b505af1158015611cc8573d6000803e3d6000fd5b505050506040513d601f19601f82011682018060405250611cec919081019061287a565b50611d5083600260003373ffffffffffffffffffffffffffffffffffffffff1673ffffffffffffffffffffffffffffffffffffffff16815260200190815260200160002060008581526020019081526020016000205461261990919063ffffffff16565b600260003373ffffffffffffffffffffffffffffffffffffffff1673ffffffffffffffffffffffffffffffffffffffff168152602001908152602001600020600084815260200190815260200160002081905550505050565b83600073ffffffffffffffffffffffffffffffffffffffff166001600083815260200190815260200160002060010160009054906101000a900473ffffffffffffffffffffffffffffffffffffffff1673ffffffffffffffffffffffffffffffffffffffff161415611e50576040517f08c379a0000000000000000000000000000000000000000000000000000000008152600401611e4790613153565b60405180910390fd5b847f4441490000000000000000000000000000000000000000000000000000000000811415611eb4576040517f08c379a0000000000000000000000000000000000000000000000000000000008152600401611eab906130b3565b60405180910390fd5b600180811115611ec057fe5b836001811115611ecc57fe5b1415611f6a5784600260003373ffffffffffffffffffffffffffffffffffffffff1673ffffffffffffffffffffffffffffffffffffffff1681526020019081526020016000206000888152602001908152602001600020541015611f65576040517f08c379a0000000000000000000000000000000000000000000000000000000008152600401611f5c906130f3565b60405180910390fd5b612030565b611f7d848661266e90919063ffffffff16565b600260003373ffffffffffffffffffffffffffffffffffffffff1673ffffffffffffffffffffffffffffffffffffffff16815260200190815260200160002060007f4441490000000000000000000000000000000000000000000000000000000000815260200190815260200160002054101561202f576040517f08c379a000000000000000000000000000000000000000000000000000000000815260040161202690613113565b60405180910390fd5b5b6000806000888152602001908152602001600020600085600181111561205257fe5b815260200190815260200160002090508060405180610100016040528060055481526020013373ffffffffffffffffffffffffffffffffffffffff16815260200186600181111561209f57fe5b8152602001898152602001888152602001600081526020018781526020014281525090806001815401808255809150506001900390600052602060002090600702016000909190919091506000820151816000015560208201518160010160006101000a81548173ffffffffffffffffffffffffffffffffffffffff021916908373ffffffffffffffffffffffffffffffffffffffff16021790555060408201518160010160146101000a81548160ff0219169083600181111561215f57fe5b0217905550606082015181600201556080820151816003015560a0820151816004015560c0820151816005015560e0820151816006015550506000808280549050116121ac5760006121b5565b60018280549050035b90505b600081111561258357600060018111156121ce57fe5b8560018111156121da57fe5b14801561222357508181815481106121ee57fe5b90600052602060002090600702016005015482600183038154811061220f57fe5b906000526020600020906007020160050154115b1561222d57612583565b60018081111561223957fe5b85600181111561224557fe5b14801561228e575081818154811061225957fe5b90600052602060002090600702016005015482600183038154811061227a57fe5b906000526020600020906007020160050154105b1561229857612583565b6122a061276c565b8260018303815481106122af57fe5b906000526020600020906007020160405180610100016040529081600082015481526020016001820160009054906101000a900473ffffffffffffffffffffffffffffffffffffffff1673ffffffffffffffffffffffffffffffffffffffff1673ffffffffffffffffffffffffffffffffffffffff1681526020016001820160149054906101000a900460ff16600181111561234757fe5b600181111561235257fe5b815260200160028201548152602001600382015481526020016004820154815260200160058201548152602001600682015481525050905082828154811061239657fe5b90600052602060002090600702018360018403815481106123b357fe5b9060005260206000209060070201600082015481600001556001820160009054906101000a900473ffffffffffffffffffffffffffffffffffffffff168160010160006101000a81548173ffffffffffffffffffffffffffffffffffffffff021916908373ffffffffffffffffffffffffffffffffffffffff1602179055506001820160149054906101000a900460ff168160010160146101000a81548160ff0219169083600181111561246357fe5b02179055506002820154816002015560038201548160030155600482015481600401556005820154816005015560068201548160060155905050808383815481106124aa57fe5b90600052602060002090600702016000820151816000015560208201518160010160006101000a81548173ffffffffffffffffffffffffffffffffffffffff021916908373ffffffffffffffffffffffffffffffffffffffff16021790555060408201518160010160146101000a81548160ff0219169083600181111561252d57fe5b0217905550606082015181600201556080820151816003015560a0820151816004015560c0820151816005015560e0820151816006015590505061257b6001836125cf90919063ffffffff16565b9150506121b8565b612599600160055461261990919063ffffffff16565b6005819055505050505050505050565b600460009054906101000a900473ffffffffffffffffffffffffffffffffffffffff1681565b600061261183836040518060400160405280601e81526020017f536166654d6174683a207375627472616374696f6e206f766572666c6f7700008152506126de565b905092915050565b600080828401905083811015612664576040517f08c379a000000000000000000000000000000000000000000000000000000000815260040161265b90613093565b60405180910390fd5b8091505092915050565b60008083141561268157600090506126d8565b600082840290508284828161269257fe5b04146126d3576040517f08c379a00000000000000000000000000000000000000000000000000000000081526004016126ca906130d3565b60405180910390fd5b809150505b92915050565b6000838311158290612726576040517f08c379a000000000000000000000000000000000000000000000000000000000815260040161271d9190613051565b60405180910390fd5b5060008385039050809150509392505050565b604051806040016040528060008019168152602001600073ffffffffffffffffffffffffffffffffffffffff1681525090565b60405180610100016040528060008152602001600073ffffffffffffffffffffffffffffffffffffffff168152602001600060018111156127a957fe5b815260200160008019168152602001600081526020016000815260200160008152602001600081525090565b6000813590506127e4816133eb565b92915050565b6000815190506127f981613402565b92915050565b60008135905061280e81613419565b92915050565b60008135905061282381613430565b92915050565b60008135905061283881613440565b92915050565b6000806040838503121561285157600080fd5b600061285f858286016127d5565b9250506020612870858286016127ff565b9150509250929050565b60006020828403121561288c57600080fd5b600061289a848285016127ea565b91505092915050565b6000602082840312156128b557600080fd5b60006128c3848285016127ff565b91505092915050565b600080604083850312156128df57600080fd5b60006128ed858286016127ff565b92505060206128fe858286016127d5565b9150509250929050565b6000806040838503121561291b57600080fd5b6000612929858286016127ff565b925050602061293a85828601612814565b9150509250929050565b60008060006060848603121561295957600080fd5b6000612967868287016127ff565b935050602061297886828701612829565b925050604061298986828701612814565b9150509250925092565b6000806000606084860312156129a857600080fd5b60006129b6868287016127ff565b93505060206129c786828701612829565b92505060406129d886828701612829565b9150509250925092565b600080600080608085870312156129f857600080fd5b6000612a06878288016127ff565b9450506020612a1787828801612829565b9350506040612a2887828801612829565b9250506060612a3987828801612814565b91505092959194509250565b600060208284031215612a5757600080fd5b6000612a6584828501612829565b91505092915050565b60008060408385031215612a8157600080fd5b6000612a8f85828601612829565b9250506020612aa0858286016127ff565b9150509250929050565b6000612ab68383612e5f565b6101008301905092915050565b6000612acf8383612f01565b60408301905092915050565b612ae481613352565b82525050565b612af3816132ed565b82525050565b612b02816132ed565b82525050565b6000612b138261327f565b612b1d81856132ba565b9350612b288361325f565b8060005b83811015612b59578151612b408882612aaa565b9750612b4b836132a0565b925050600181019050612b2c565b5085935050505092915050565b6000612b718261328a565b612b7b81856132cb565b9350612b868361326f565b8060005b83811015612bb7578151612b9e8882612ac3565b9750612ba9836132ad565b925050600181019050612b8a565b5085935050505092915050565b612bcd8161330b565b82525050565b612bdc8161330b565b82525050565b612beb81613364565b82525050565b612bfa81613364565b82525050565b6000612c0b82613295565b612c1581856132dc565b9350612c2581856020860161339a565b612c2e816133cd565b840191505092915050565b6000612c466013836132dc565b91507f696e73756666696369656e7420746f6b656e73000000000000000000000000006000830152602082019050919050565b6000612c86601b836132dc565b91507f536166654d6174683a206164646974696f6e206f766572666c6f7700000000006000830152602082019050919050565b6000612cc66010836132dc565b91507f63616e6e6f7420747261646520444149000000000000000000000000000000006000830152602082019050919050565b6000612d066021836132dc565b91507f536166654d6174683a206d756c7469706c69636174696f6e206f766572666c6f60008301527f77000000000000000000000000000000000000000000000000000000000000006020830152604082019050919050565b6000612d6c6015836132dc565b91507f746f6b656e2062616c616e636520746f6f206c6f7700000000000000000000006000830152602082019050919050565b6000612dac6013836132dc565b91507f6461692062616c616e636520746f6f206c6f77000000000000000000000000006000830152602082019050919050565b6000612dec6015836132dc565b91507f6f6e6c792061646d696e2063616e2061636365737300000000000000000000006000830152602082019050919050565b6000612e2c6019836132dc565b91507f7468697320746f6b656e20646f6573206e6f74206578697374000000000000006000830152602082019050919050565b61010082016000820151612e766000850182612f30565b506020820151612e896020850182612aea565b506040820151612e9c6040850182612be2565b506060820151612eaf6060850182612bc4565b506080820151612ec26080850182612f30565b5060a0820151612ed560a0850182612f30565b5060c0820151612ee860c0850182612f30565b5060e0820151612efb60e0850182612f30565b50505050565b604082016000820151612f176000850182612bc4565b506020820151612f2a6020850182612aea565b50505050565b612f3981613348565b82525050565b612f4881613348565b82525050565b6000602082019050612f636000830184612af9565b92915050565b6000606082019050612f7e6000830186612adb565b612f8b6020830185612af9565b612f986040830184612f3f565b949350505050565b6000604082019050612fb56000830185612adb565b612fc26020830184612f3f565b9392505050565b60006020820190508181036000830152612fe38184612b08565b905092915050565b600060208201905081810360008301526130058184612b66565b905092915050565b60006020820190506130226000830184612bd3565b92915050565b600060408201905061303d6000830185612bd3565b61304a6020830184612af9565b9392505050565b6000602082019050818103600083015261306b8184612c00565b905092915050565b6000602082019050818103600083015261308c81612c39565b9050919050565b600060208201905081810360008301526130ac81612c79565b9050919050565b600060208201905081810360008301526130cc81612cb9565b9050919050565b600060208201905081810360008301526130ec81612cf9565b9050919050565b6000602082019050818103600083015261310c81612d5f565b9050919050565b6000602082019050818103600083015261312c81612d9f565b9050919050565b6000602082019050818103600083015261314c81612ddf565b9050919050565b6000602082019050818103600083015261316c81612e1f565b9050919050565b60006020820190506131886000830184612f3f565b92915050565b6000610100820190506131a4600083018b612f3f565b6131b1602083018a612af9565b6131be6040830189612bf1565b6131cb6060830188612bd3565b6131d86080830187612f3f565b6131e560a0830186612f3f565b6131f260c0830185612f3f565b6131ff60e0830184612f3f565b9998505050505050505050565b600060a0820190506132216000830188612f3f565b61322e6020830187612f3f565b61323b6040830186612f3f565b6132486060830185612f3f565b6132556080830184612f3f565b9695505050505050565b6000819050602082019050919050565b6000819050602082019050919050565b600081519050919050565b600081519050919050565b600081519050919050565b6000602082019050919050565b6000602082019050919050565b600082825260208201905092915050565b600082825260208201905092915050565b600082825260208201905092915050565b60006132f882613328565b9050919050565b60008115159050919050565b6000819050919050565b6000819050613323826133de565b919050565b600073ffffffffffffffffffffffffffffffffffffffff82169050919050565b6000819050919050565b600061335d82613376565b9050919050565b600061336f82613315565b9050919050565b600061338182613388565b9050919050565b600061339382613328565b9050919050565b60005b838110156133b857808201518184015260208101905061339d565b838111156133c7576000848401525b50505050565b6000601f19601f8301169050919050565b600281106133e857fe5b50565b6133f4816132ed565b81146133ff57600080fd5b50565b61340b816132ff565b811461341657600080fd5b50565b6134228161330b565b811461342d57600080fd5b50565b6002811061343d57600080fd5b50565b61344981613348565b811461345457600080fd5b5056fea26469706673582212200daf8f998d3ea0abc0305018f4ffa4f2ebed849aeb5ea6085a7dedad33db225f64736f6c63430006030033",
  "source": "pragma solidity 0.6.3;\npragma experimental ABIEncoderV2;\nimport '@openzeppelin/contracts/token/ERC20/IERC20.sol';\nimport '@openzeppelin/contracts/math/SafeMath.sol';\ncontract Dex {\n    \n    using SafeMath for uint;\n    \n    //type of order buy or sell\n    enum Side{\n        BUY,\n        SELL\n    }\n    \n    struct Token{\n        bytes32 ticker;\n        address tokenAddress;\n    }\n    //details of each order\n    struct Order {\n        uint id;\n        address trader;\n        Side side;\n        bytes32 ticker;\n        uint amount;\n        uint filled;\n        uint price;\n        uint date;\n    }\n    \n    bytes32 constant DAI = bytes32('DAI');\n    \n    //array or order structure(ticker => uint(buy,0/sell,1) => all orders)\n    //all orders(decreasing order) of x token of buy type\n    mapping(bytes32 => mapping(uint => Order[])) public orderBook;\n    \n    mapping(bytes32 => Token) public tokens;\n    mapping(address => mapping(bytes32=>uint)) public traderBalances;\n    bytes32[] public tokenList;\n    \n    address public admin;\n    \n    //tracker for next order ID\n    uint public nextOrderId;\n    \n    uint public nextTradeId;\n    //for market trades\n    event newTrade(\n        uint tradeId,\n        uint orderId,\n        bytes32 indexed ticker,\n        address indexed trader1,\n        address indexed trader2,\n        uint amount,\n        uint price,\n        uint date\n    );\n    \n    constructor() public {\n        admin= msg.sender;\n    }\n\n    function getOrders(\n        bytes32 ticker,\n        Side side)\n        external\n        view\n        returns(Order[] memory){\n            return orderBook[ticker][uint(side)];\n        }\n\n    function getTokens()\n        external\n        view\n        returns(Token[] memory){\n            Token[] memory _token = new Token[](tokenList.length);\n            for(uint i=0;i < tokenList.length ;i++){\n                _token[i] = Token(\n                    tokens[tokenList[i]].ticker,\n                    tokens[tokenList[i]].tokenAddress\n                );\n            }\n            return _token;\n        }\n\n    function addToken(\n        bytes32 ticker,\n        address  tokenAddress)\n        onlyAdmin()\n        external{\n            tokens[ticker] = Token(ticker, tokenAddress);\n            tokenList.push(ticker);\n        }\n        \n    modifier onlyAdmin(){\n        require(msg.sender == admin, \"only admin can access\");\n        _;\n    }\n    \n    function deposit(\n        uint amount,\n        bytes32 ticker)\n        tokenExist(ticker) \n        external {\n        IERC20(tokens[ticker].tokenAddress).transferFrom(\n                msg.sender,\n                address(this),\n                amount\n        );\n        traderBalances[msg.sender][ticker] = traderBalances[msg.sender][ticker].add(amount);    \n    }\n    \n    function withdraw(\n        uint amount,\n        bytes32 ticker)\n        tokenExist(ticker) \n        external {\n        require(\n            traderBalances[msg.sender][ticker] >= amount,\n            'insufficient tokens'\n        );\n        traderBalances[msg.sender][ticker] = traderBalances[msg.sender][ticker].sub(amount);\n        IERC20(tokens[ticker].tokenAddress).transfer(msg.sender, amount);\n    }\n    \n    function createLimitOrder(\n        bytes32 ticker, \n        uint amount,\n        uint price, \n        Side side) \n        tokenExist(ticker) \n        tokenIsNotDai(ticker)\n        external {\n        //DAI is quote currency, all erc20 tokens are sold/purchased agains DAI coin\n        // require(ticker != DAI,'cannot trade DAI');\n        if(side == Side.SELL){\n            require(\n                traderBalances[msg.sender][ticker] >= amount,\n                'token balance too low'\n            );\n        }else {\n            require(\n                traderBalances[msg.sender][DAI] >= amount.mul(price),\n                'dai balance too low'\n            );\n        }\n        \n        Order[] storage orders = orderBook[ticker][uint(side)];\n        orders.push(Order(\n            nextOrderId,\n            msg.sender,\n            side,\n            ticker,\n            amount,\n            0,\n            price,\n            now\n        ));\n        \n        //bubble sort to arrange orders on basis or price\n        uint i = orders.length > 0 ? orders.length - 1 : 0 ;\n        while(i>0){\n            if(side == Side.BUY && orders[i-1].price>orders[i].price){\n                break;\n            }\n            if(side == Side.SELL && orders[i-1].price<orders[i].price){\n                break;\n            }\n            \n            Order memory order = orders[i-1];\n            orders[i-1] = orders[i];\n            orders[i] = order;\n            i= i.sub(1);\n        }\n        nextOrderId = nextOrderId.add(1);\n    }\n    \n    function createMarketOrder(\n        bytes32 ticker,\n        uint amount,\n        Side side)\n        tokenExist(ticker)\n        tokenIsNotDai(ticker)\n    external{\n        if(side == Side.SELL){\n            require(\n                traderBalances[msg.sender][ticker] >= amount,\n                'token balance too low'\n            );\n        //for selling token we can identify if seller has enough tokens but while buy market order\n        //we cannot determine the price at which the market order will be full filled because\n        //one order can have a number of trades under it i.e. market orders can be fulfilled partially\n        //as per availability in order book \n        }\n        Order[] storage orders = orderBook[ticker][uint(side == Side.BUY ? Side.SELL : Side.BUY)];\n        uint i;\n        uint remaining = amount;\n        \n        //start matching market buy/sell orders agains list sell/buy resp\n        while(i< orders.length && remaining > 0){\n            uint available_liquidity = orders[i].amount.sub(orders[i].filled);\n            uint matched = (remaining > available_liquidity) ? available_liquidity : remaining ;\n            remaining = remaining.sub(matched);\n            orders[i].filled = orders[i].filled.add(matched);\n            emit newTrade(\n                nextTradeId,\n                orders[i].id,\n                ticker,\n                orders[i].trader, //trader that created the order in order book\n                msg.sender,//trader that creates market order (caller of this fn)\n                matched,\n                orders[i].price,\n                now        \n            );\n            if(side == Side.SELL){\n                traderBalances[msg.sender][ticker] = traderBalances[msg.sender][ticker].sub(matched);\n                traderBalances[msg.sender][DAI] = traderBalances[msg.sender][DAI].add(matched.mul(orders[i].price));\n                traderBalances[orders[i].trader][ticker] = traderBalances[orders[i].trader][ticker].add(matched);\n                traderBalances[orders[i].trader][DAI] = traderBalances[orders[i].trader][DAI].sub(matched.mul(orders[i].price));\n            }\n            if(side == Side.BUY){\n                require(\n                    traderBalances[msg.sender][DAI] >= matched.mul(orders[i].price),\n                    'dai balance too low'\n                );\n                traderBalances[msg.sender][ticker] += traderBalances[msg.sender][ticker].add(matched);\n                traderBalances[msg.sender][DAI] = traderBalances[msg.sender][DAI].sub(matched.mul(orders[i].price));\n                traderBalances[orders[i].trader][ticker] = traderBalances[orders[i].trader][ticker].sub(matched);\n                traderBalances[orders[i].trader][DAI] = traderBalances[orders[i].trader][DAI].add(matched.mul(orders[i].price));\n            }\n            nextTradeId = nextTradeId.add(1);\n            i= i.add(1);\n        }\n        i=0;\n        while(i < orders.length && orders[i].filled == orders[i].amount ){\n            for(uint j=i ; j<orders.length-1;j++){\n                orders[j]=orders[j+1];\n            }\n            orders.pop();\n            i= i.add(1);\n        }\n        \n        \n    }\n    modifier tokenIsNotDai(bytes32 ticker){\n        require(ticker != DAI,'cannot trade DAI');\n        _;\n    }\n    \n    modifier tokenExist(bytes32 ticker) {\n        require(tokens[ticker].tokenAddress != address(0),\n        'this token does not exist');\n        _;\n    }\n    \n}",
  "sourcePath": "/home/geronimo/Decentralized Exchange/contracts/Dex.sol",
  "compiler": {
    "name": "solc",
    "version": "0.6.3+commit.8dda9521.Emscripten.clang"
  },
  "schemaVersion": "3.2.3",
  "updatedAt": "2020-08-12T00:58:58.022Z",
  "networkType": "ethereum",
  "devdoc": {
    "methods": {}
  },
  "userdoc": {
    "methods": {}
  }
}